{
  "contractName": "CertificateStore",
  "abi": [
    {
      "inputs": [],
      "stateMutability": "nonpayable",
      "type": "constructor"
    },
    {
      "inputs": [
        {
          "internalType": "bytes32",
          "name": "",
          "type": "bytes32"
        }
      ],
      "name": "hashes",
      "outputs": [
        {
          "internalType": "enum CertificateStore.State",
          "name": "status",
          "type": "uint8"
        }
      ],
      "stateMutability": "view",
      "type": "function"
    },
    {
      "inputs": [
        {
          "internalType": "bytes32",
          "name": "_hash",
          "type": "bytes32"
        }
      ],
      "name": "issue_hash",
      "outputs": [],
      "stateMutability": "nonpayable",
      "type": "function"
    },
    {
      "inputs": [
        {
          "internalType": "bytes32",
          "name": "_hash",
          "type": "bytes32"
        }
      ],
      "name": "revoke_hash",
      "outputs": [],
      "stateMutability": "nonpayable",
      "type": "function"
    }
  ],
  "bytecode": "0x608060405234801561001057600080fd5b50600080546001600160a01b03191633179055610211806100326000396000f3fe608060405234801561001057600080fd5b50600436106100415760003560e01c80638b5ee87a14610046578063cb34f74b14610065578063d658d2e914610082575b600080fd5b6100636004803603602081101561005c57600080fd5b50356100c3565b005b6100636004803603602081101561007b57600080fd5b5035610144565b61009f6004803603602081101561009857600080fd5b50356101c6565b604051808260028111156100af57fe5b60ff16815260200191505060405180910390f35b6000546001600160a01b03163314610122576040805162461bcd60e51b815260206004820152601d60248201527f6f6e6c7920636f6e7472616374206f776e65722063616e206973737565000000604482015290519081900360640190fd5b6000818152600160208190526040909120805460ff191682805b021790555050565b6000546001600160a01b031633146101a3576040805162461bcd60e51b815260206004820152601d60248201527f6f6e6c7920636f6e7472616374206f776e65722063616e206973737565000000604482015290519081900360640190fd5b6000818152600160208190526040909120805460029260ff19909116908361013c565b60016020526000908152604090205460ff168156fea2646970667358221220be4bb76ddf18a9971eecdc8564adf8a3320648fac7a048dee34e2d453aa5ed6f64736f6c63430006040033",
  "source": "pragma solidity >=0.4.22;\n\ncontract CertificateStore {\n\tenum State {not_issued, valid, revoked}\n\n\tstruct Hash {\n\t\tState status;\n\t}\n\n\taddress internal owner;\n\t// key: hash, value: Batch/Cert\n\tmapping(bytes32 => Hash) public hashes;\n\n\tmodifier only_owner() {\n\t\trequire(\n\t\t\tmsg.sender == owner,\n\t\t\t\"only contract owner can issue\"\n\t\t);\n\t\t_;\n\t}\n\n\tconstructor() public {\n\t\towner = msg.sender;\n\t}\n\n\tfunction issue_hash(bytes32 _hash) public only_owner {\n\t\thashes[_hash].status = State.valid;\n\t}\n\n\tfunction revoke_hash(bytes32 _hash) public only_owner {\n\t\thashes[_hash].status = State.revoked;\n\t}\n}\n",
  "sourcePath": "/home/james/bloxberg-certs/cert-deployer/contracts/CertificateStore.sol",
  "compiler": {
    "name": "solc",
    "version": "0.6.4+commit.1dca32f3.Emscripten.clang"
  },
  "schemaVersion": "3.0.23",
  "updatedAt": "2020-07-06T10:34:03.432Z",
  "devdoc": {
    "methods": {}
  },
  "userdoc": {
    "methods": {}
  }
}