{
  "contractName": "ERC721Burnable",
  "abi": [
    {
      "anonymous": false,
      "inputs": [
        {
          "indexed": true,
          "internalType": "address",
          "name": "owner",
          "type": "address"
        },
        {
          "indexed": true,
          "internalType": "address",
          "name": "approved",
          "type": "address"
        },
        {
          "indexed": true,
          "internalType": "uint256",
          "name": "tokenId",
          "type": "uint256"
        }
      ],
      "name": "Approval",
      "type": "event"
    },
    {
      "anonymous": false,
      "inputs": [
        {
          "indexed": true,
          "internalType": "address",
          "name": "owner",
          "type": "address"
        },
        {
          "indexed": true,
          "internalType": "address",
          "name": "operator",
          "type": "address"
        },
        {
          "indexed": false,
          "internalType": "bool",
          "name": "approved",
          "type": "bool"
        }
      ],
      "name": "ApprovalForAll",
      "type": "event"
    },
    {
      "anonymous": false,
      "inputs": [
        {
          "indexed": true,
          "internalType": "address",
          "name": "from",
          "type": "address"
        },
        {
          "indexed": true,
          "internalType": "address",
          "name": "to",
          "type": "address"
        },
        {
          "indexed": true,
          "internalType": "uint256",
          "name": "tokenId",
          "type": "uint256"
        }
      ],
      "name": "Transfer",
      "type": "event"
    },
    {
      "inputs": [
        {
          "internalType": "address",
          "name": "to",
          "type": "address"
        },
        {
          "internalType": "uint256",
          "name": "tokenId",
          "type": "uint256"
        }
      ],
      "name": "approve",
      "outputs": [],
      "stateMutability": "nonpayable",
      "type": "function"
    },
    {
      "inputs": [
        {
          "internalType": "address",
          "name": "owner",
          "type": "address"
        }
      ],
      "name": "balanceOf",
      "outputs": [
        {
          "internalType": "uint256",
          "name": "",
          "type": "uint256"
        }
      ],
      "stateMutability": "view",
      "type": "function"
    },
    {
      "inputs": [
        {
          "internalType": "uint256",
          "name": "tokenId",
          "type": "uint256"
        }
      ],
      "name": "getApproved",
      "outputs": [
        {
          "internalType": "address",
          "name": "",
          "type": "address"
        }
      ],
      "stateMutability": "view",
      "type": "function"
    },
    {
      "inputs": [
        {
          "internalType": "address",
          "name": "owner",
          "type": "address"
        },
        {
          "internalType": "address",
          "name": "operator",
          "type": "address"
        }
      ],
      "name": "isApprovedForAll",
      "outputs": [
        {
          "internalType": "bool",
          "name": "",
          "type": "bool"
        }
      ],
      "stateMutability": "view",
      "type": "function"
    },
    {
      "inputs": [
        {
          "internalType": "uint256",
          "name": "tokenId",
          "type": "uint256"
        }
      ],
      "name": "ownerOf",
      "outputs": [
        {
          "internalType": "address",
          "name": "",
          "type": "address"
        }
      ],
      "stateMutability": "view",
      "type": "function"
    },
    {
      "inputs": [
        {
          "internalType": "address",
          "name": "from",
          "type": "address"
        },
        {
          "internalType": "address",
          "name": "to",
          "type": "address"
        },
        {
          "internalType": "uint256",
          "name": "tokenId",
          "type": "uint256"
        }
      ],
      "name": "safeTransferFrom",
      "outputs": [],
      "stateMutability": "nonpayable",
      "type": "function"
    },
    {
      "inputs": [
        {
          "internalType": "address",
          "name": "from",
          "type": "address"
        },
        {
          "internalType": "address",
          "name": "to",
          "type": "address"
        },
        {
          "internalType": "uint256",
          "name": "tokenId",
          "type": "uint256"
        },
        {
          "internalType": "bytes",
          "name": "_data",
          "type": "bytes"
        }
      ],
      "name": "safeTransferFrom",
      "outputs": [],
      "stateMutability": "nonpayable",
      "type": "function"
    },
    {
      "inputs": [
        {
          "internalType": "address",
          "name": "operator",
          "type": "address"
        },
        {
          "internalType": "bool",
          "name": "approved",
          "type": "bool"
        }
      ],
      "name": "setApprovalForAll",
      "outputs": [],
      "stateMutability": "nonpayable",
      "type": "function"
    },
    {
      "inputs": [
        {
          "internalType": "bytes4",
          "name": "interfaceId",
          "type": "bytes4"
        }
      ],
      "name": "supportsInterface",
      "outputs": [
        {
          "internalType": "bool",
          "name": "",
          "type": "bool"
        }
      ],
      "stateMutability": "view",
      "type": "function"
    },
    {
      "inputs": [
        {
          "internalType": "address",
          "name": "from",
          "type": "address"
        },
        {
          "internalType": "address",
          "name": "to",
          "type": "address"
        },
        {
          "internalType": "uint256",
          "name": "tokenId",
          "type": "uint256"
        }
      ],
      "name": "transferFrom",
      "outputs": [],
      "stateMutability": "nonpayable",
      "type": "function"
    },
    {
      "inputs": [
        {
          "internalType": "uint256",
          "name": "tokenId",
          "type": "uint256"
        }
      ],
      "name": "burn",
      "outputs": [],
      "stateMutability": "nonpayable",
      "type": "function"
    }
  ],
  "bytecode": "0x608060405261001d6301ffc9a760e01b6001600160e01b0361003b16565b6100366380ac58cd60e01b6001600160e01b0361003b16565b6100bf565b6001600160e01b0319808216141561009a576040805162461bcd60e51b815260206004820152601c60248201527f4552433136353a20696e76616c696420696e7465726661636520696400000000604482015290519081900360640190fd5b6001600160e01b0319166000908152602081905260409020805460ff19166001179055565b6110c5806100ce6000396000f3fe608060405234801561001057600080fd5b50600436106100a95760003560e01c806342966c681161007157806342966c68146101bc5780636352211e146101d957806370a08231146101f6578063a22cb4651461022e578063b88d4fde1461025c578063e985e9c514610322576100a9565b806301ffc9a7146100ae578063081812fc146100e9578063095ea7b31461012257806323b872dd1461015057806342842e0e14610186575b600080fd5b6100d5600480360360208110156100c457600080fd5b50356001600160e01b031916610350565b604080519115158252519081900360200190f35b610106600480360360208110156100ff57600080fd5b503561036f565b604080516001600160a01b039092168252519081900360200190f35b61014e6004803603604081101561013857600080fd5b506001600160a01b0381351690602001356103d1565b005b61014e6004803603606081101561016657600080fd5b506001600160a01b038135811691602081013590911690604001356104ac565b61014e6004803603606081101561019c57600080fd5b506001600160a01b03813581169160208101359091169060400135610503565b61014e600480360360208110156101d257600080fd5b503561051e565b610106600480360360208110156101ef57600080fd5b5035610570565b61021c6004803603602081101561020c57600080fd5b50356001600160a01b03166105ca565b60408051918252519081900360200190f35b61014e6004803603604081101561024457600080fd5b506001600160a01b0381351690602001351515610632565b61014e6004803603608081101561027257600080fd5b6001600160a01b038235811692602081013590911691604082013591908101906080810160608201356401000000008111156102ad57600080fd5b8201836020820111156102bf57600080fd5b803590602001918460018302840111640100000000831117156102e157600080fd5b91908080601f016020809104026020016040519081016040528093929190818152602001838380828437600092019190915250929550610737945050505050565b6100d56004803603604081101561033857600080fd5b506001600160a01b0381358116916020013516610795565b6001600160e01b03191660009081526020819052604090205460ff1690565b600061037a826107c3565b6103b55760405162461bcd60e51b815260040180806020018281038252602c815260200180610fb9602c913960400191505060405180910390fd5b506000908152600260205260409020546001600160a01b031690565b60006103dc82610570565b9050806001600160a01b0316836001600160a01b0316141561042f5760405162461bcd60e51b815260040180806020018281038252602181526020018061100e6021913960400191505060405180910390fd5b806001600160a01b03166104416107e0565b6001600160a01b0316148061046257506104628161045d6107e0565b610795565b61049d5760405162461bcd60e51b8152600401808060200182810382526038815260200180610f2e6038913960400191505060405180910390fd5b6104a783836107e4565b505050565b6104bd6104b76107e0565b82610852565b6104f85760405162461bcd60e51b815260040180806020018281038252603181526020018061102f6031913960400191505060405180910390fd5b6104a78383836108f6565b6104a783838360405180602001604052806000815250610737565b6105296104b76107e0565b6105645760405162461bcd60e51b81526004018080602001828103825260308152602001806110606030913960400191505060405180910390fd5b61056d81610a47565b50565b6000818152600160205260408120546001600160a01b0316806105c45760405162461bcd60e51b8152600401808060200182810382526029815260200180610f906029913960400191505060405180910390fd5b92915050565b60006001600160a01b0382166106115760405162461bcd60e51b815260040180806020018281038252602a815260200180610f66602a913960400191505060405180910390fd5b6001600160a01b03821660009081526003602052604090206105c490610ae1565b61063a6107e0565b6001600160a01b0316826001600160a01b031614156106a0576040805162461bcd60e51b815260206004820152601960248201527f4552433732313a20617070726f766520746f2063616c6c657200000000000000604482015290519081900360640190fd5b80600460006106ad6107e0565b6001600160a01b03908116825260208083019390935260409182016000908120918716808252919093529120805460ff1916921515929092179091556106f16107e0565b60408051841515815290516001600160a01b0392909216917f17307eab39ab6107e8899845ad3d59bd9653f200f220920489ca2b5937696c319181900360200190a35050565b6107486107426107e0565b83610852565b6107835760405162461bcd60e51b815260040180806020018281038252603181526020018061102f6031913960400191505060405180910390fd5b61078f84848484610ae5565b50505050565b6001600160a01b03918216600090815260046020908152604080832093909416825291909152205460ff1690565b6000908152600160205260409020546001600160a01b0316151590565b3390565b600081815260026020526040902080546001600160a01b0319166001600160a01b038416908117909155819061081982610570565b6001600160a01b03167f8c5be1e5ebec7d5bd14f71427d1e84f3dd0314c0f7b2291e5b200ac8c7c3b92560405160405180910390a45050565b600061085d826107c3565b6108985760405162461bcd60e51b815260040180806020018281038252602c815260200180610f02602c913960400191505060405180910390fd5b60006108a383610570565b9050806001600160a01b0316846001600160a01b031614806108de5750836001600160a01b03166108d38461036f565b6001600160a01b0316145b806108ee57506108ee8185610795565b949350505050565b826001600160a01b031661090982610570565b6001600160a01b03161461094e5760405162461bcd60e51b8152600401808060200182810382526029815260200180610fe56029913960400191505060405180910390fd5b6001600160a01b0382166109935760405162461bcd60e51b8152600401808060200182810382526024815260200180610ede6024913960400191505060405180910390fd5b61099e8383836104a7565b6109a96000826107e4565b6001600160a01b03831660009081526003602052604090206109ca90610b37565b6001600160a01b03821660009081526003602052604090206109eb90610b4e565b60008181526001602052604080822080546001600160a01b0319166001600160a01b0386811691821790925591518493918716917fddf252ad1be2c89b69c2b068fc378daa952ba7f163c4a11628f55a4df523b3ef91a4505050565b6000610a5282610570565b9050610a60816000846104a7565b610a6b6000836107e4565b6001600160a01b0381166000908152600360205260409020610a8c90610b37565b60008281526001602052604080822080546001600160a01b0319169055518391906001600160a01b038416907fddf252ad1be2c89b69c2b068fc378daa952ba7f163c4a11628f55a4df523b3ef908390a45050565b5490565b610af08484846108f6565b610afc84848484610b57565b61078f5760405162461bcd60e51b8152600401808060200182810382526032815260200180610eac6032913960400191505060405180910390fd5b8054610b4a90600163ffffffff610d9216565b9055565b80546001019055565b6000610b6b846001600160a01b0316610ddb565b610b77575060016108ee565b600060606001600160a01b038616630a85bd0160e11b610b956107e0565b89888860405160240180856001600160a01b03166001600160a01b03168152602001846001600160a01b03166001600160a01b0316815260200183815260200180602001828103825283818151815260200191508051906020019080838360005b83811015610c0e578181015183820152602001610bf6565b50505050905090810190601f168015610c3b5780820380516001836020036101000a031916815260200191505b5060408051601f198184030181529181526020820180516001600160e01b03166001600160e01b0319909a16999099178952518151919890975087965094509250829150849050835b60208310610ca35780518252601f199092019160209182019101610c84565b6001836020036101000a0380198251168184511680821785525050505050509050019150506000604051808303816000865af19150503d8060008114610d05576040519150601f19603f3d011682016040523d82523d6000602084013e610d0a565b606091505b509150915081610d5b57805115610d245780518082602001fd5b60405162461bcd60e51b8152600401808060200182810382526032815260200180610eac6032913960400191505060405180910390fd5b6000818060200190516020811015610d7257600080fd5b50516001600160e01b031916630a85bd0160e11b1493506108ee92505050565b6000610dd483836040518060400160405280601e81526020017f536166654d6174683a207375627472616374696f6e206f766572666c6f770000815250610e14565b9392505050565b6000813f7fc5d2460186f7233c927e7db2dcc703c0e500b653ca82273b7bfad8045d85a4708181148015906108ee575050151592915050565b60008184841115610ea35760405162461bcd60e51b81526004018080602001828103825283818151815260200191508051906020019080838360005b83811015610e68578181015183820152602001610e50565b50505050905090810190601f168015610e955780820380516001836020036101000a031916815260200191505b509250505060405180910390fd5b50505090039056fe4552433732313a207472616e7366657220746f206e6f6e20455243373231526563656976657220696d706c656d656e7465724552433732313a207472616e7366657220746f20746865207a65726f20616464726573734552433732313a206f70657261746f7220717565727920666f72206e6f6e6578697374656e7420746f6b656e4552433732313a20617070726f76652063616c6c6572206973206e6f74206f776e6572206e6f7220617070726f76656420666f7220616c6c4552433732313a2062616c616e636520717565727920666f7220746865207a65726f20616464726573734552433732313a206f776e657220717565727920666f72206e6f6e6578697374656e7420746f6b656e4552433732313a20617070726f76656420717565727920666f72206e6f6e6578697374656e7420746f6b656e4552433732313a207472616e73666572206f6620746f6b656e2074686174206973206e6f74206f776e4552433732313a20617070726f76616c20746f2063757272656e74206f776e65724552433732313a207472616e736665722063616c6c6572206973206e6f74206f776e6572206e6f7220617070726f7665644552433732314275726e61626c653a2063616c6c6572206973206e6f74206f776e6572206e6f7220617070726f766564a2646970667358221220443809d1cb38800b87c9caf61189e036b91f457fc94ccb40829bce8cbc721b2064736f6c63430006040033",
  "source": "pragma solidity ^0.6.0;\n\nimport \"./Context.sol\";\nimport \"./ERC721.sol\";\n\n/**\n * @title ERC721 Burnable Token\n * @dev ERC721 Token that can be irreversibly burned (destroyed).\n */\ncontract ERC721Burnable is Context, ERC721 {\n    /**\n     * @dev Burns a specific ERC721 token.\n     * @param tokenId uint256 id of the ERC721 token to be burned.\n     */\n    function burn(uint256 tokenId) public virtual {\n        //solhint-disable-next-line max-line-length\n        require(_isApprovedOrOwner(_msgSender(), tokenId), \"ERC721Burnable: caller is not owner nor approved\");\n        _burn(tokenId);\n    }\n}\n",
  "sourcePath": "/home/james/bloxberg-certs/cert-deployer/contracts/ERC721Burnable.sol",
  "compiler": {
    "name": "solc",
    "version": "0.6.4+commit.1dca32f3.Emscripten.clang"
  },
  "schemaVersion": "3.0.23",
  "updatedAt": "2020-07-06T10:34:03.445Z",
  "devdoc": {
    "details": "ERC721 Token that can be irreversibly burned (destroyed).",
    "methods": {
      "approve(address,uint256)": {
        "details": "Approves another address to transfer the given token ID The zero address indicates there is no approved address. There can only be one approved address per token at a given time. Can only be called by the token owner or an approved operator.",
        "params": {
          "to": "address to be approved for the given token ID",
          "tokenId": "uint256 ID of the token to be approved"
        }
      },
      "balanceOf(address)": {
        "details": "Gets the balance of the specified address.",
        "params": {
          "owner": "address to query the balance of"
        },
        "returns": {
          "_0": "uint256 representing the amount owned by the passed address"
        }
      },
      "burn(uint256)": {
        "details": "Burns a specific ERC721 token.",
        "params": {
          "tokenId": "uint256 id of the ERC721 token to be burned."
        }
      },
      "getApproved(uint256)": {
        "details": "Gets the approved address for a token ID, or zero if no address set Reverts if the token ID does not exist.",
        "params": {
          "tokenId": "uint256 ID of the token to query the approval of"
        },
        "returns": {
          "_0": "address currently approved for the given token ID"
        }
      },
      "isApprovedForAll(address,address)": {
        "details": "Tells whether an operator is approved by a given owner.",
        "params": {
          "operator": "operator address which you want to query the approval of",
          "owner": "owner address which you want to query the approval of"
        },
        "returns": {
          "_0": "bool whether the given operator is approved by the given owner"
        }
      },
      "ownerOf(uint256)": {
        "details": "Gets the owner of the specified token ID.",
        "params": {
          "tokenId": "uint256 ID of the token to query the owner of"
        },
        "returns": {
          "_0": "address currently marked as the owner of the given token ID"
        }
      },
      "safeTransferFrom(address,address,uint256)": {
        "details": "Safely transfers the ownership of a given token ID to another address If the target address is a contract, it must implement {IERC721Receiver-onERC721Received}, which is called upon a safe transfer, and return the magic value `bytes4(keccak256(\"onERC721Received(address,address,uint256,bytes)\"))`; otherwise, the transfer is reverted. Requires the msg.sender to be the owner, approved, or operator",
        "params": {
          "from": "current owner of the token",
          "to": "address to receive the ownership of the given token ID",
          "tokenId": "uint256 ID of the token to be transferred"
        }
      },
      "safeTransferFrom(address,address,uint256,bytes)": {
        "details": "Safely transfers the ownership of a given token ID to another address If the target address is a contract, it must implement {IERC721Receiver-onERC721Received}, which is called upon a safe transfer, and return the magic value `bytes4(keccak256(\"onERC721Received(address,address,uint256,bytes)\"))`; otherwise, the transfer is reverted. Requires the _msgSender() to be the owner, approved, or operator",
        "params": {
          "_data": "bytes data to send along with a safe transfer check",
          "from": "current owner of the token",
          "to": "address to receive the ownership of the given token ID",
          "tokenId": "uint256 ID of the token to be transferred"
        }
      },
      "setApprovalForAll(address,bool)": {
        "details": "Sets or unsets the approval of a given operator An operator is allowed to transfer all tokens of the sender on their behalf.",
        "params": {
          "approved": "representing the status of the approval to be set",
          "operator": "operator address to set the approval"
        }
      },
      "supportsInterface(bytes4)": {
        "details": "See {IERC165-supportsInterface}.     * Time complexity O(1), guaranteed to always use less than 30 000 gas."
      },
      "transferFrom(address,address,uint256)": {
        "details": "Transfers the ownership of a given token ID to another address. Usage of this method is discouraged, use {safeTransferFrom} whenever possible. Requires the msg.sender to be the owner, approved, or operator.",
        "params": {
          "from": "current owner of the token",
          "to": "address to receive the ownership of the given token ID",
          "tokenId": "uint256 ID of the token to be transferred"
        }
      }
    },
    "title": "ERC721 Burnable Token"
  },
  "userdoc": {
    "methods": {}
  }
}