{
  "contractName": "ERC721Full",
  "abi": [
    {
      "inputs": [
        {
          "internalType": "string",
          "name": "name",
          "type": "string"
        },
        {
          "internalType": "string",
          "name": "symbol",
          "type": "string"
        }
      ],
      "stateMutability": "nonpayable",
      "type": "constructor"
    },
    {
      "anonymous": false,
      "inputs": [
        {
          "indexed": true,
          "internalType": "address",
          "name": "owner",
          "type": "address"
        },
        {
          "indexed": true,
          "internalType": "address",
          "name": "approved",
          "type": "address"
        },
        {
          "indexed": true,
          "internalType": "uint256",
          "name": "tokenId",
          "type": "uint256"
        }
      ],
      "name": "Approval",
      "type": "event"
    },
    {
      "anonymous": false,
      "inputs": [
        {
          "indexed": true,
          "internalType": "address",
          "name": "owner",
          "type": "address"
        },
        {
          "indexed": true,
          "internalType": "address",
          "name": "operator",
          "type": "address"
        },
        {
          "indexed": false,
          "internalType": "bool",
          "name": "approved",
          "type": "bool"
        }
      ],
      "name": "ApprovalForAll",
      "type": "event"
    },
    {
      "anonymous": false,
      "inputs": [
        {
          "indexed": true,
          "internalType": "address",
          "name": "from",
          "type": "address"
        },
        {
          "indexed": true,
          "internalType": "address",
          "name": "to",
          "type": "address"
        },
        {
          "indexed": true,
          "internalType": "uint256",
          "name": "tokenId",
          "type": "uint256"
        }
      ],
      "name": "Transfer",
      "type": "event"
    },
    {
      "inputs": [
        {
          "internalType": "address",
          "name": "to",
          "type": "address"
        },
        {
          "internalType": "uint256",
          "name": "tokenId",
          "type": "uint256"
        }
      ],
      "name": "approve",
      "outputs": [],
      "stateMutability": "nonpayable",
      "type": "function"
    },
    {
      "inputs": [
        {
          "internalType": "address",
          "name": "owner",
          "type": "address"
        }
      ],
      "name": "balanceOf",
      "outputs": [
        {
          "internalType": "uint256",
          "name": "",
          "type": "uint256"
        }
      ],
      "stateMutability": "view",
      "type": "function"
    },
    {
      "inputs": [],
      "name": "baseURI",
      "outputs": [
        {
          "internalType": "string",
          "name": "",
          "type": "string"
        }
      ],
      "stateMutability": "view",
      "type": "function"
    },
    {
      "inputs": [
        {
          "internalType": "uint256",
          "name": "tokenId",
          "type": "uint256"
        }
      ],
      "name": "getApproved",
      "outputs": [
        {
          "internalType": "address",
          "name": "",
          "type": "address"
        }
      ],
      "stateMutability": "view",
      "type": "function"
    },
    {
      "inputs": [
        {
          "internalType": "address",
          "name": "owner",
          "type": "address"
        },
        {
          "internalType": "address",
          "name": "operator",
          "type": "address"
        }
      ],
      "name": "isApprovedForAll",
      "outputs": [
        {
          "internalType": "bool",
          "name": "",
          "type": "bool"
        }
      ],
      "stateMutability": "view",
      "type": "function"
    },
    {
      "inputs": [],
      "name": "name",
      "outputs": [
        {
          "internalType": "string",
          "name": "",
          "type": "string"
        }
      ],
      "stateMutability": "view",
      "type": "function"
    },
    {
      "inputs": [
        {
          "internalType": "uint256",
          "name": "tokenId",
          "type": "uint256"
        }
      ],
      "name": "ownerOf",
      "outputs": [
        {
          "internalType": "address",
          "name": "",
          "type": "address"
        }
      ],
      "stateMutability": "view",
      "type": "function"
    },
    {
      "inputs": [
        {
          "internalType": "address",
          "name": "from",
          "type": "address"
        },
        {
          "internalType": "address",
          "name": "to",
          "type": "address"
        },
        {
          "internalType": "uint256",
          "name": "tokenId",
          "type": "uint256"
        }
      ],
      "name": "safeTransferFrom",
      "outputs": [],
      "stateMutability": "nonpayable",
      "type": "function"
    },
    {
      "inputs": [
        {
          "internalType": "address",
          "name": "from",
          "type": "address"
        },
        {
          "internalType": "address",
          "name": "to",
          "type": "address"
        },
        {
          "internalType": "uint256",
          "name": "tokenId",
          "type": "uint256"
        },
        {
          "internalType": "bytes",
          "name": "_data",
          "type": "bytes"
        }
      ],
      "name": "safeTransferFrom",
      "outputs": [],
      "stateMutability": "nonpayable",
      "type": "function"
    },
    {
      "inputs": [
        {
          "internalType": "address",
          "name": "operator",
          "type": "address"
        },
        {
          "internalType": "bool",
          "name": "approved",
          "type": "bool"
        }
      ],
      "name": "setApprovalForAll",
      "outputs": [],
      "stateMutability": "nonpayable",
      "type": "function"
    },
    {
      "inputs": [
        {
          "internalType": "bytes4",
          "name": "interfaceId",
          "type": "bytes4"
        }
      ],
      "name": "supportsInterface",
      "outputs": [
        {
          "internalType": "bool",
          "name": "",
          "type": "bool"
        }
      ],
      "stateMutability": "view",
      "type": "function"
    },
    {
      "inputs": [],
      "name": "symbol",
      "outputs": [
        {
          "internalType": "string",
          "name": "",
          "type": "string"
        }
      ],
      "stateMutability": "view",
      "type": "function"
    },
    {
      "inputs": [
        {
          "internalType": "uint256",
          "name": "index",
          "type": "uint256"
        }
      ],
      "name": "tokenByIndex",
      "outputs": [
        {
          "internalType": "uint256",
          "name": "",
          "type": "uint256"
        }
      ],
      "stateMutability": "view",
      "type": "function"
    },
    {
      "inputs": [
        {
          "internalType": "uint256",
          "name": "tokenId",
          "type": "uint256"
        }
      ],
      "name": "tokenHash",
      "outputs": [
        {
          "internalType": "string",
          "name": "",
          "type": "string"
        }
      ],
      "stateMutability": "view",
      "type": "function"
    },
    {
      "inputs": [
        {
          "internalType": "address",
          "name": "owner",
          "type": "address"
        },
        {
          "internalType": "uint256",
          "name": "index",
          "type": "uint256"
        }
      ],
      "name": "tokenOfOwnerByIndex",
      "outputs": [
        {
          "internalType": "uint256",
          "name": "",
          "type": "uint256"
        }
      ],
      "stateMutability": "view",
      "type": "function"
    },
    {
      "inputs": [
        {
          "internalType": "uint256",
          "name": "tokenId",
          "type": "uint256"
        }
      ],
      "name": "tokenURI",
      "outputs": [
        {
          "internalType": "string",
          "name": "",
          "type": "string"
        }
      ],
      "stateMutability": "view",
      "type": "function"
    },
    {
      "inputs": [],
      "name": "totalSupply",
      "outputs": [
        {
          "internalType": "uint256",
          "name": "",
          "type": "uint256"
        }
      ],
      "stateMutability": "view",
      "type": "function"
    },
    {
      "inputs": [
        {
          "internalType": "address",
          "name": "from",
          "type": "address"
        },
        {
          "internalType": "address",
          "name": "to",
          "type": "address"
        },
        {
          "internalType": "uint256",
          "name": "tokenId",
          "type": "uint256"
        }
      ],
      "name": "transferFrom",
      "outputs": [],
      "stateMutability": "nonpayable",
      "type": "function"
    }
  ],
  "bytecode": "0x60806040523480156200001157600080fd5b5060405162001e3f38038062001e3f833981810160405260408110156200003757600080fd5b81019080805160405193929190846401000000008211156200005857600080fd5b9083019060208201858111156200006e57600080fd5b82516401000000008111828201881017156200008957600080fd5b82525081516020918201929091019080838360005b83811015620000b85781810151838201526020016200009e565b50505050905090810190601f168015620000e65780820380516001836020036101000a031916815260200191505b50604052602001805160405193929190846401000000008211156200010a57600080fd5b9083019060208201858111156200012057600080fd5b82516401000000008111828201881017156200013b57600080fd5b82525081516020918201929091019080838360005b838110156200016a57818101518382015260200162000150565b50505050905090810190601f168015620001985780820380516001836020036101000a031916815260200191505b5060405250839150829050620001be6301ffc9a760e01b6001600160e01b036200024516565b620001d96380ac58cd60e01b6001600160e01b036200024516565b620001f463780e9d6360e01b6001600160e01b036200024516565b815162000209906009906020850190620002ca565b5080516200021f90600a906020840190620002ca565b506200023b635b5e139f60e01b6001600160e01b036200024516565b505050506200036f565b6001600160e01b03198082161415620002a5576040805162461bcd60e51b815260206004820152601c60248201527f4552433136353a20696e76616c696420696e7465726661636520696400000000604482015290519081900360640190fd5b6001600160e01b0319166000908152602081905260409020805460ff19166001179055565b828054600181600116156101000203166002900490600052602060002090601f016020900481019282601f106200030d57805160ff19168380011785556200033d565b828001600101855582156200033d579182015b828111156200033d57825182559160200191906001019062000320565b506200034b9291506200034f565b5090565b6200036c91905b808211156200034b576000815560010162000356565b90565b611ac0806200037f6000396000f3fe608060405234801561001057600080fd5b50600436106101165760003560e01c80636352211e116100a2578063a22cb46511610071578063a22cb4651461035c578063a38643971461038a578063b88d4fde146103a7578063c87b56dd1461046d578063e985e9c51461048a57610116565b80636352211e146103095780636c0360eb1461032657806370a082311461032e57806395d89b411461035457610116565b806318160ddd116100e957806318160ddd1461023a57806323b872dd146102545780632f745c591461028a57806342842e0e146102b65780634f6ccce7146102ec57610116565b806301ffc9a71461011b57806306fdde0314610156578063081812fc146101d3578063095ea7b31461020c575b600080fd5b6101426004803603602081101561013157600080fd5b50356001600160e01b0319166104b8565b604080519115158252519081900360200190f35b61015e6104db565b6040805160208082528351818301528351919283929083019185019080838360005b83811015610198578181015183820152602001610180565b50505050905090810190601f1680156101c55780820380516001836020036101000a031916815260200191505b509250505060405180910390f35b6101f0600480360360208110156101e957600080fd5b5035610572565b604080516001600160a01b039092168252519081900360200190f35b6102386004803603604081101561022257600080fd5b506001600160a01b0381351690602001356105d4565b005b6102426106af565b60408051918252519081900360200190f35b6102386004803603606081101561026a57600080fd5b506001600160a01b038135811691602081013590911690604001356106b5565b610242600480360360408110156102a057600080fd5b506001600160a01b03813516906020013561070c565b610238600480360360608110156102cc57600080fd5b506001600160a01b0381358116916020810135909116906040013561078b565b6102426004803603602081101561030257600080fd5b50356107a6565b6101f06004803603602081101561031f57600080fd5b503561080c565b61015e610866565b6102426004803603602081101561034457600080fd5b50356001600160a01b03166108c7565b61015e61092f565b6102386004803603604081101561037257600080fd5b506001600160a01b0381351690602001351515610990565b61015e600480360360208110156103a057600080fd5b5035610a95565b610238600480360360808110156103bd57600080fd5b6001600160a01b038235811692602081013590911691604082013591908101906080810160608201356401000000008111156103f857600080fd5b82018360208201111561040a57600080fd5b8035906020019184600183028401116401000000008311171561042c57600080fd5b91908080601f016020809104026020016040519081016040528093929190818152602001838380828437600092019190915250929550610c06945050505050565b61015e6004803603602081101561048357600080fd5b5035610c64565b610142600480360360408110156104a057600080fd5b506001600160a01b0381358116916020013516610e30565b6001600160e01b0319811660009081526020819052604090205460ff165b919050565b60098054604080516020601f60026000196101006001881615020190951694909404938401819004810282018101909252828152606093909290918301828280156105675780601f1061053c57610100808354040283529160200191610567565b820191906000526020600020905b81548152906001019060200180831161054a57829003601f168201915b505050505090505b90565b600061057d82610e5e565b6105b85760405162461bcd60e51b815260040180806020018281038252602c815260200180611989602c913960400191505060405180910390fd5b506000908152600260205260409020546001600160a01b031690565b60006105df8261080c565b9050806001600160a01b0316836001600160a01b031614156106325760405162461bcd60e51b8152600401808060200182810382526021815260200180611a0d6021913960400191505060405180910390fd5b806001600160a01b0316610644610e7b565b6001600160a01b03161480610665575061066581610660610e7b565b610e30565b6106a05760405162461bcd60e51b81526004018080602001828103825260388152602001806118fe6038913960400191505060405180910390fd5b6106aa8383610e7f565b505050565b60075490565b6106c66106c0610e7b565b82610eed565b6107015760405162461bcd60e51b8152600401808060200182810382526031815260200180611a2e6031913960400191505060405180910390fd5b6106aa838383610f91565b6000610717836108c7565b82106107545760405162461bcd60e51b815260040180806020018281038252602b815260200180611821602b913960400191505060405180910390fd5b6001600160a01b038316600090815260056020526040902080548390811061077857fe5b9060005260206000200154905092915050565b6106aa83838360405180602001604052806000815250610c06565b60006107b06106af565b82106107ed5760405162461bcd60e51b815260040180806020018281038252602c815260200180611a5f602c913960400191505060405180910390fd5b600782815481106107fa57fe5b90600052602060002001549050919050565b6000818152600160205260408120546001600160a01b0316806108605760405162461bcd60e51b81526004018080602001828103825260298152602001806119606029913960400191505060405180910390fd5b92915050565b600d8054604080516020601f60026000196101006001881615020190951694909404938401819004810282018101909252828152606093909290918301828280156105675780601f1061053c57610100808354040283529160200191610567565b60006001600160a01b03821661090e5760405162461bcd60e51b815260040180806020018281038252602a815260200180611936602a913960400191505060405180910390fd5b6001600160a01b0382166000908152600360205260409020610860906110e2565b600a8054604080516020601f60026000196101006001881615020190951694909404938401819004810282018101909252828152606093909290918301828280156105675780601f1061053c57610100808354040283529160200191610567565b610998610e7b565b6001600160a01b0316826001600160a01b031614156109fe576040805162461bcd60e51b815260206004820152601960248201527f4552433732313a20617070726f766520746f2063616c6c657200000000000000604482015290519081900360640190fd5b8060046000610a0b610e7b565b6001600160a01b03908116825260208083019390935260409182016000908120918716808252919093529120805460ff191692151592909217909155610a4f610e7b565b60408051841515815290516001600160a01b0392909216917f17307eab39ab6107e8899845ad3d59bd9653f200f220920489ca2b5937696c319181900360200190a35050565b6060610aa082610e5e565b610adb5760405162461bcd60e51b815260040180806020018281038252603081526020018061187e6030913960400191505060405180910390fd5b6000828152600c602090815260409182902080548351601f6002600019610100600186161502019093169290920491820184900484028101840190945280845260609392830182828015610b705780601f10610b4557610100808354040283529160200191610b70565b820191906000526020600020905b815481529060010190602001808311610b5357829003601f168201915b50505050509050805160001415610b975750506040805160208101909152600081526104d6565b806040516020018082805190602001908083835b60208310610bca5780518252601f199092019160209182019101610bab565b6001836020036101000a0380198251168184511680821785525050505050509050019150506040516020818303038152906040529150506104d6565b610c17610c11610e7b565b83610eed565b610c525760405162461bcd60e51b8152600401808060200182810382526031815260200180611a2e6031913960400191505060405180910390fd5b610c5e848484846110e6565b50505050565b6060610c6f82610e5e565b610caa5760405162461bcd60e51b815260040180806020018281038252602f8152602001806119de602f913960400191505060405180910390fd5b6000828152600b602090815260409182902080548351601f6002600019610100600186161502019093169290920491820184900484028101840190945280845260609392830182828015610d3f5780601f10610d1457610100808354040283529160200191610d3f565b820191906000526020600020905b815481529060010190602001808311610d2257829003601f168201915b50505050509050805160001415610d665750506040805160208101909152600081526104d6565b600d816040516020018083805460018160011615610100020316600290048015610dc75780601f10610da5576101008083540402835291820191610dc7565b820191906000526020600020905b815481529060010190602001808311610db3575b5050825160208401908083835b60208310610df35780518252601f199092019160209182019101610dd4565b6001836020036101000a038019825116818451168082178552505050505050905001925050506040516020818303038152906040529150506104d6565b6001600160a01b03918216600090815260046020908152604080832093909416825291909152205460ff1690565b6000908152600160205260409020546001600160a01b0316151590565b3390565b600081815260026020526040902080546001600160a01b0319166001600160a01b0384169081179091558190610eb48261080c565b6001600160a01b03167f8c5be1e5ebec7d5bd14f71427d1e84f3dd0314c0f7b2291e5b200ac8c7c3b92560405160405180910390a45050565b6000610ef882610e5e565b610f335760405162461bcd60e51b815260040180806020018281038252602c8152602001806118d2602c913960400191505060405180910390fd5b6000610f3e8361080c565b9050806001600160a01b0316846001600160a01b03161480610f795750836001600160a01b0316610f6e84610572565b6001600160a01b0316145b80610f895750610f898185610e30565b949350505050565b826001600160a01b0316610fa48261080c565b6001600160a01b031614610fe95760405162461bcd60e51b81526004018080602001828103825260298152602001806119b56029913960400191505060405180910390fd5b6001600160a01b03821661102e5760405162461bcd60e51b81526004018080602001828103825260248152602001806118ae6024913960400191505060405180910390fd5b611039838383611138565b611044600082610e7f565b6001600160a01b038316600090815260036020526040902061106590611143565b6001600160a01b03821660009081526003602052604090206110869061115a565b60008181526001602052604080822080546001600160a01b0319166001600160a01b0386811691821790925591518493918716917fddf252ad1be2c89b69c2b068fc378daa952ba7f163c4a11628f55a4df523b3ef91a4505050565b5490565b6110f1848484610f91565b6110fd84848484611163565b610c5e5760405162461bcd60e51b815260040180806020018281038252603281526020018061184c6032913960400191505060405180910390fd5b6106aa83838361139e565b805461115690600163ffffffff6113f516565b9055565b80546001019055565b6000611177846001600160a01b031661143e565b61118357506001610f89565b600060606001600160a01b038616630a85bd0160e11b6111a1610e7b565b89888860405160240180856001600160a01b03166001600160a01b03168152602001846001600160a01b03166001600160a01b0316815260200183815260200180602001828103825283818151815260200191508051906020019080838360005b8381101561121a578181015183820152602001611202565b50505050905090810190601f1680156112475780820380516001836020036101000a031916815260200191505b5060408051601f198184030181529181526020820180516001600160e01b03166001600160e01b0319909a16999099178952518151919890975087965094509250829150849050835b602083106112af5780518252601f199092019160209182019101611290565b6001836020036101000a0380198251168184511680821785525050505050509050019150506000604051808303816000865af19150503d8060008114611311576040519150601f19603f3d011682016040523d82523d6000602084013e611316565b606091505b509150915081611367578051156113305780518082602001fd5b60405162461bcd60e51b815260040180806020018281038252603281526020018061184c6032913960400191505060405180910390fd5b600081806020019051602081101561137e57600080fd5b50516001600160e01b031916630a85bd0160e11b149350610f8992505050565b6113a9838383611477565b6001600160a01b0382166106aa576000818152600b602052604090205460026000196101006001841615020190911604156106aa576000818152600b602052604081206106aa916117bb565b600061143783836040518060400160405280601e81526020017f536166654d6174683a207375627472616374696f6e206f766572666c6f7700008152506114ec565b9392505050565b6000813f7fc5d2460186f7233c927e7db2dcc703c0e500b653ca82273b7bfad8045d85a470818114801590610f89575050151592915050565b6114828383836106aa565b6001600160a01b0383166114a85761149a8282611583565b6114a3816115c1565b6106aa565b6001600160a01b0382166114d8576114c08382611605565b6000818152600660205260408120556114a381611707565b6114e28382611605565b6106aa8282611583565b6000818484111561157b5760405162461bcd60e51b81526004018080602001828103825283818151815260200191508051906020019080838360005b83811015611540578181015183820152602001611528565b50505050905090810190601f16801561156d5780820380516001836020036101000a031916815260200191505b509250505060405180910390fd5b505050900390565b6001600160a01b0390911660009081526005602081815260408084208054868652600684529185208290559282526001810183559183529091200155565b600780546000838152600860205260408120829055600182018355919091527fa66cc928b5edb82af9bd49922954155ab7b0942694bea4ce44661d9a8736c6880155565b6001600160a01b03821660009081526005602052604081205461162f90600163ffffffff6113f516565b6000838152600660205260409020549091508082146116ca576001600160a01b038416600090815260056020526040812080548490811061166c57fe5b906000526020600020015490508060056000876001600160a01b03166001600160a01b0316815260200190815260200160002083815481106116aa57fe5b600091825260208083209091019290925591825260069052604090208190555b6001600160a01b03841660009081526005602052604090208054806116eb57fe5b6001900381819060005260206000200160009055905550505050565b60075460009061171e90600163ffffffff6113f516565b6000838152600860205260408120546007805493945090928490811061174057fe5b90600052602060002001549050806007838154811061175b57fe5b6000918252602080832090910192909255828152600890915260409020829055600780548061178657fe5b600190038181906000526020600020016000905590556000600860008681526020019081526020016000208190555050505050565b50805460018160011615610100020316600290046000825580601f106117e157506117ff565b601f0160209004906000526020600020908101906117ff9190611802565b50565b61056f91905b8082111561181c5760008155600101611808565b509056fe455243373231456e756d657261626c653a206f776e657220696e646578206f7574206f6620626f756e64734552433732313a207472616e7366657220746f206e6f6e20455243373231526563656976657220696d706c656d656e7465724552433732314d657461646174613a204861736820717565727920666f72206e6f6e6578697374656e7420746f6b656e4552433732313a207472616e7366657220746f20746865207a65726f20616464726573734552433732313a206f70657261746f7220717565727920666f72206e6f6e6578697374656e7420746f6b656e4552433732313a20617070726f76652063616c6c6572206973206e6f74206f776e6572206e6f7220617070726f76656420666f7220616c6c4552433732313a2062616c616e636520717565727920666f7220746865207a65726f20616464726573734552433732313a206f776e657220717565727920666f72206e6f6e6578697374656e7420746f6b656e4552433732313a20617070726f76656420717565727920666f72206e6f6e6578697374656e7420746f6b656e4552433732313a207472616e73666572206f6620746f6b656e2074686174206973206e6f74206f776e4552433732314d657461646174613a2055524920717565727920666f72206e6f6e6578697374656e7420746f6b656e4552433732313a20617070726f76616c20746f2063757272656e74206f776e65724552433732313a207472616e736665722063616c6c6572206973206e6f74206f776e6572206e6f7220617070726f766564455243373231456e756d657261626c653a20676c6f62616c20696e646578206f7574206f6620626f756e6473a2646970667358221220ad096f93dc8a6f500ed34df0d9826a4cbd5ae1376b59afc5c70e1a7b0053484064736f6c63430006040033",
  "source": "pragma solidity ^0.6.0;\n\nimport \"./ERC721Enumerable.sol\";\nimport \"./ERC721Metadata.sol\";\n\n/**\n * @title Full ERC721 Token\n * @dev This implementation includes all the required and some optional functionality of the ERC721 standard\n * Moreover, it includes approve all functionality using operator terminology.\n *\n * See https://eips.ethereum.org/EIPS/eip-721\n */\ncontract ERC721Full is ERC721Enumerable, ERC721Metadata {\n    constructor (string memory name, string memory symbol) public ERC721Metadata(name, symbol) { }\n\n    function _beforeTokenTransfer(address from, address to, uint256 tokenId)\n        virtual\n        override(ERC721Enumerable, ERC721Metadata)\n        internal\n    {\n        super._beforeTokenTransfer(from, to, tokenId);\n    }\n}\n",
  "sourcePath": "/home/james/bloxberg-certs/cert-deployer/contracts/ERC721Full.sol",
  "compiler": {
    "name": "solc",
    "version": "0.6.4+commit.1dca32f3.Emscripten.clang"
  },
  "schemaVersion": "3.0.23",
  "updatedAt": "2020-07-06T10:34:03.451Z",
  "devdoc": {
    "details": "This implementation includes all the required and some optional functionality of the ERC721 standard Moreover, it includes approve all functionality using operator terminology. * See https://eips.ethereum.org/EIPS/eip-721",
    "methods": {
      "approve(address,uint256)": {
        "details": "Approves another address to transfer the given token ID The zero address indicates there is no approved address. There can only be one approved address per token at a given time. Can only be called by the token owner or an approved operator.",
        "params": {
          "to": "address to be approved for the given token ID",
          "tokenId": "uint256 ID of the token to be approved"
        }
      },
      "balanceOf(address)": {
        "details": "Gets the balance of the specified address.",
        "params": {
          "owner": "address to query the balance of"
        },
        "returns": {
          "_0": "uint256 representing the amount owned by the passed address"
        }
      },
      "baseURI()": {
        "details": "Returns the base URI set via {_setBaseURI}. This will be automatically added as a preffix in {tokenURI} to each token's URI, when they are non-empty."
      },
      "getApproved(uint256)": {
        "details": "Gets the approved address for a token ID, or zero if no address set Reverts if the token ID does not exist.",
        "params": {
          "tokenId": "uint256 ID of the token to query the approval of"
        },
        "returns": {
          "_0": "address currently approved for the given token ID"
        }
      },
      "isApprovedForAll(address,address)": {
        "details": "Tells whether an operator is approved by a given owner.",
        "params": {
          "operator": "operator address which you want to query the approval of",
          "owner": "owner address which you want to query the approval of"
        },
        "returns": {
          "_0": "bool whether the given operator is approved by the given owner"
        }
      },
      "name()": {
        "details": "Gets the token name.",
        "returns": {
          "_0": "string representing the token name"
        }
      },
      "ownerOf(uint256)": {
        "details": "Gets the owner of the specified token ID.",
        "params": {
          "tokenId": "uint256 ID of the token to query the owner of"
        },
        "returns": {
          "_0": "address currently marked as the owner of the given token ID"
        }
      },
      "safeTransferFrom(address,address,uint256)": {
        "details": "Safely transfers the ownership of a given token ID to another address If the target address is a contract, it must implement {IERC721Receiver-onERC721Received}, which is called upon a safe transfer, and return the magic value `bytes4(keccak256(\"onERC721Received(address,address,uint256,bytes)\"))`; otherwise, the transfer is reverted. Requires the msg.sender to be the owner, approved, or operator",
        "params": {
          "from": "current owner of the token",
          "to": "address to receive the ownership of the given token ID",
          "tokenId": "uint256 ID of the token to be transferred"
        }
      },
      "safeTransferFrom(address,address,uint256,bytes)": {
        "details": "Safely transfers the ownership of a given token ID to another address If the target address is a contract, it must implement {IERC721Receiver-onERC721Received}, which is called upon a safe transfer, and return the magic value `bytes4(keccak256(\"onERC721Received(address,address,uint256,bytes)\"))`; otherwise, the transfer is reverted. Requires the _msgSender() to be the owner, approved, or operator",
        "params": {
          "_data": "bytes data to send along with a safe transfer check",
          "from": "current owner of the token",
          "to": "address to receive the ownership of the given token ID",
          "tokenId": "uint256 ID of the token to be transferred"
        }
      },
      "setApprovalForAll(address,bool)": {
        "details": "Sets or unsets the approval of a given operator An operator is allowed to transfer all tokens of the sender on their behalf.",
        "params": {
          "approved": "representing the status of the approval to be set",
          "operator": "operator address to set the approval"
        }
      },
      "supportsInterface(bytes4)": {
        "details": "See {IERC165-supportsInterface}.     * Time complexity O(1), guaranteed to always use less than 30 000 gas."
      },
      "symbol()": {
        "details": "Gets the token symbol.",
        "returns": {
          "_0": "string representing the token symbol"
        }
      },
      "tokenByIndex(uint256)": {
        "details": "Gets the token ID at a given index of all the tokens in this contract Reverts if the index is greater or equal to the total number of tokens.",
        "params": {
          "index": "uint256 representing the index to be accessed of the tokens list"
        },
        "returns": {
          "_0": "uint256 token ID at the given index of the tokens list"
        }
      },
      "tokenHash(uint256)": {
        "details": "Returns the Hash for a given token ID. May return an empty string.     * Reverts if the token ID does not exist."
      },
      "tokenOfOwnerByIndex(address,uint256)": {
        "details": "Gets the token ID at a given index of the tokens list of the requested owner.",
        "params": {
          "index": "uint256 representing the index to be accessed of the requested tokens list",
          "owner": "address owning the tokens list to be accessed"
        },
        "returns": {
          "_0": "uint256 token ID at the given index of the tokens list owned by the requested address"
        }
      },
      "tokenURI(uint256)": {
        "details": "Returns the URI for a given token ID. May return an empty string.     * If the token's URI is non-empty and a base URI was set (via {_setBaseURI}), it will be added to the token ID's URI as a prefix.     * Reverts if the token ID does not exist."
      },
      "totalSupply()": {
        "details": "Gets the total amount of tokens stored by the contract.",
        "returns": {
          "_0": "uint256 representing the total amount of tokens"
        }
      },
      "transferFrom(address,address,uint256)": {
        "details": "Transfers the ownership of a given token ID to another address. Usage of this method is discouraged, use {safeTransferFrom} whenever possible. Requires the msg.sender to be the owner, approved, or operator.",
        "params": {
          "from": "current owner of the token",
          "to": "address to receive the ownership of the given token ID",
          "tokenId": "uint256 ID of the token to be transferred"
        }
      }
    },
    "title": "Full ERC721 Token"
  },
  "userdoc": {
    "methods": {}
  }
}